:1070000006C0BDC14AC132C044C12EC0CEC1112488
:107010001FBECFEFD8E0DEBFCDBF11E0A0E0B1E0F2
:10702000E6EDFDE702C005900D92A232B107D9F757
:1070300014E0A2E2B1E001C01D92AF36B107E1F762
:107040006BD2C7C6000000002DC41FC1A1C40AC076
:1070500085C416C74D52427573426F6F744C6F6191
:10706000646572004EE003C04CE001C04AE02F921C
:107070003F924F925F926F927F928F929F92AF92C8
:10708000BF92CF92DF92EF92FF920F931F93CF9315
:10709000DF938F939F93DB01FC01842FE894819011
:1070A0009190A190B190C190D190E190F190019117
:1070B00011912191319141915191619171919BE196
:1070C000FFE70D9080240D9090240D90A0240D904A
:1070D000B0240D90C0240D90D0240D90E0240D908C
:1070E000F0240D9000250D9010250D9020250D9079
:1070F00030250D9040250D9050250D9060250D9068
:1071000070252EF5FF91EF9181929192A192B1920B
:10711000C192D192E192F192019311932193319313
:107120004193519361937193DF91CF911F910F918F
:10713000FF90EF90DF90CF90BF90AF909F908F9097
:107140007F906F905F904F903F902F9008958A9519
:1071500009F46894E82D8490EC2DC490E02F0491FC
:10716000E42F4491E92D2490ED2D9490E12FD490BB
:10717000E52F1491522DEA2D2490EE2D3490E22F1C
:10718000A490E62FE490222D632DEB2D2490E72F81
:10719000B490E32F7491EF2D3491F22C0EF491CF33
:1071A0000A2C0B24402C282C89240824880C08F451
:1071B000892680248224392C3A24330C08F4392679
:1071C00030249324440C08F449264024A4242B247E
:1071D000220C08F429262024B2240E2C0F24402C43
:1071E0002C2CCD240C24CC0C08F4C926C024C22499
:1071F0003D2C3E24330C08F439263024D324440C8F
:1072000008F449264024E4242F24220C08F42926DB
:107210002024F224022E0326402C202E01270026B3
:10722000000F08F4092700250225312E3226330CE1
:1072300008F4392630241325440C08F44926402448
:1072400024252326220C08F4292620243225062E64
:107250000726402C242E45270426440F08F44927EE
:1072600040254225352E3626330C08F439263024A5
:107270005325440C08F44926402464252726220C73
:1072800008F42926202472251CCFAB0171E060E0B0
:1072900007C0AB0170E060EC03C0AB01772760E88A
:1072A000EF92FF920F931F93CF93DF93FA01EA01BE
:1072B000DC017695679566956695262F0D9001926F
:1072C0002A95E1F76695669563FB362F762F795FF1
:1072D000770F770FDF011497262FE0E0FFE77F019C
:1072E00011E04D915D918D919D913217B1F05EF558
:1072F000022F0770043039F5F701E40FF11D4491B6
:10730000F701E50FF11D5491F701E80FF11D84918C
:10731000F701E90FF11D949116C0360FF701E40F44
:10732000F11D0491F701E50FF11D4491F701E80FFC
:10733000F11D5491F701E90FF11D8491902F412720
:10734000110F08F41BE1FD01099004260192099038
:1073500005260192099008260192099009260192BA
:107360002395271709F0BDCFE894DF91CF911F91A6
:107370000F91FF90EF900895FC018491089582E0B1
:107380000895EEEFFFE6259134912F3E8FE6380702
:1073900018F080E090E00895C901089540E150E0C0
:1073A0006EEE7FE683ED93E0F3C45F926F927F927F
:1073B0008F929F92AF92BF92CF92DF92EF92FF9205
:1073C0000F931F93CF93DF93CDB7DEB7C05BD10987
:1073D0000FB6F894DEBF0FBECDBF7C01CB016A01B2
:1073E0004901BE016F5F7F4F58DF80E1F7011192C5
:1073F0008A95E9F7F701D182C082BE016F5F7F4FA6
:10740000C70134DEC114D104F1F03701A12CB12C35
:10741000F3015080C501800F911FF4010995852566
:10742000F30181933F01FFEFAF1ABF0A81E0C81A51
:10743000D108E0E1AE16B10419F0C114D10441F74E
:10744000005F1F4FDACFC055DF4F0FB6F894DEBF95
:107450000FBECDBFDF91CF911F910F91FF90EF90A5
:10746000DF90CF90BF90AF909F908F907F906F9064
:107470005F9008958E3EFFE69F0730F4FC01249153
:107480002F3F21F40196F6CF80E0089581E0089522
:10749000EF92FF920F931F93CF93DF93CDB7DEB799
:1074A000A0970FB6F894DEBF0FBECDBF40E150E00D
:1074B00064E570E7CE0101966BD463DF7C016EDF7B
:1074C000C701D8DF882311F081E019C000E010E087
:1074D0002CEB39E3A701BE016F5F7F4FCE014196D0
:1074E00064DFFE017196A3EDB3E0CE018196319188
:1074F0002D913213E9CFE817F907C9F780E0A0967C
:107500000FB6F894DEBF0FBECDBFDF91CF911F91B4
:107510000F91FF90EF900895CF93DF93CDB7DEB733
:10752000A9970FB6F894DEBF0FBECDBF15BE8FEF83
:107530008BB988B985B91AB817B814B881E085BF76
:1075400082E085BFA895809160008861809360008B
:107550008EE080936000A89580E090E032D4809324
:10756000D20381508E3F18F083E08093D20348E02D
:1075700060E571E089E694E039D348E162EF71E0BB
:1075800083E694E033D33BD278948FEF8E8BEE2456
:10759000E394F12C88E08B8380E48E83E1E080919A
:1075A000F0018F3F09F0E0E0EF83F0E0E051FE4FA3
:1075B00080818887DD24D39400E810E08E89898358
:1075C0008091D2038A834B81BE016F5F7F4F89E632
:1075D00094E031D326E6C22EA89583E694E01BD32F
:1075E000882309F421C120E044E1BE016B5E7F4F96
:1075F00083E694E05ED3882379F39091D2038E8959
:10760000891751F38D898F3F11F09813E5CFB12C75
:1076100080E090E06F89B61670F42DEF2B0D2230CC
:1076200040F0E5E1F0E0EC0FFD1FEB0DF11D608196
:10763000A8D2B394EFCF492F5527298D30E04217B8
:10764000530751F69927288D30E08217930709F0E8
:10765000C3CF8A8D813429F481E68E8386E08B83C3
:10766000ADCF813221F481E08093220193CF20912C
:10767000D2039D892913B0CF8434B1F5643109F068
:10768000ABCF2FA12B3008F0A7CF34EF3203A001EE
:1076900011244D388FEF58071CF440585F4F02C03B
:1076A0004CE050E03CE0239FC0011124BE01655E28
:1076B0007F4F8D519C4F29A774D329A5E22FE695C2
:1076C000E695E695F0E0E051FE4F2770C701022EE7
:1076D00001C0880F0A94EAF79081982B908388A5BF
:1076E000882309F479CF56CF8634A9F51092F0019A
:1076F0001092F101CE82673041F46B8D70E040E86A
:1077000050E083EE93E056D3A9CF6A3009F064CFFE
:107710006B8D7C8D4D8D5E8D513808F050E8E42FD7
:10772000F0E0852F90E09801281B390B2E173F07BA
:1077300014F440E8451BE42FF0E02EEE3FE6261B54
:10774000370B2E173F0710F44EEE461B50E08D51BD
:107750009C4F1ED383CF833281F4683009F03CCF35
:107760006B8D7C8D80E090E043EE53E089D31092E6
:10777000F0011092F10184E270CF833521F581E1AF
:107780008B8383E78E83FDDDB82EC92E81DE8823AF
:1077900019F090E8A92E01C0A12C8B2D9C2D6ADE3A
:1077A00091E0811101C090E0A92AAF82B886C98614
:1077B000E3EDF3E0DE011A9681918D9383E0EB3DDA
:1077C000F807D1F7FBCE8635A1F42FE02B8386E7AF
:1077D0008E8381E28F8382E088871A87098780E021
:1077E00090E79C878B878EE18D8785E98E872F8731
:1077F000E5CE883509F0F0CE673041F48B8D8823D3
:1078000029F01092220110920001E6CEF894A8957A
:1078100084B7877F84BF8091600088618093600017
:1078200088E080936000FFCF89E694E0F4D188235C
:1078300011F003D1D1CE80910001882351F0815005
:10784000809300018FE493EC0197F1F700C00000F2
:10785000C3CE809122018111BFCE1ADE8111BCCE30
:10786000F894D5BE15BE0C940000B6CEF8948823CB
:1078700011F05A9801C05A9A90E020E035E83A9504
:10788000F1F700009F5F9A3059F09330B8F34899B0
:1078900021E0281799F35A985198789481E0089537
:1078A00080E008951F920F920FB60F9211242F932C
:1078B0003F934F935F936F937F938F939F93AF9378
:1078C000BF93EF93FF9381E080934F018091C000BD
:1078D000887139F08091C60080933A0110923A0184
:1078E0002CC0E0913A0181E08E0F80933A018091A3
:1078F000C600F0E0E55CFE4F808380913A0186305F
:1079000098F040913A0180913D0148130DC01092CA
:107910003A01453108F044E16BE371E083E694E01D
:107920008AD110924F0109C080913A01853128F027
:1079300080913A01815080933A01FF91EF91BF917C
:10794000AF919F918F917F916F915F914F913F91F7
:107950002F910F900FBE0F901F9018951F920F92AE
:107960000FB60F9211248F93EF93FF935A98E1EC87
:10797000F0E0808187718068808386E080932401B5
:10798000FF91EF918F910F900FBE0F901F90189560
:107990001F920F920FB60F9211248F939F93EF9324
:1079A000FF93E091250181E08E0F80932501F0E0A7
:1079B000EA5DFE4F80818093C6008091250184316D
:1079C00030F4909128018091250198130FC0809187
:1079D000C00080648093C0008091C1008F7D80933F
:1079E000C1008091C10080648093C100FF91EF913C
:1079F0009F918F910F900FBE0F901F901895529AE4
:107A00005A988AB18C7F8AB91092250110924F0141
:107A100026E0209324012093230185E190E09093B8
:107A2000C5008093C4001092C000E1ECF0E0108229
:107A30002093C20088E980830895CF93DF9389E67D
:107A400094E0E9D0882309F497C0C091C100C076C2
:107A500009F077C021E044E166E271E089E694E054
:107A600028D180912801853008F482C0D091270167
:107A700080E090E0C0E020912801C21760F42DEF73
:107A80002C0F223030F0EC2FF0E0EA5DFE4F6081E9
:107A900078D0CF5FF0CF8093290190932A01109284
:107AA0004F01309124018091230120912701EFE0C3
:107AB000F7E23197F1F700C0000090914F0191116A
:107AC00039C0F8949BB1997F9BB9519A9091C100AC
:107AD000977F9093C10010923A0178942F702A5E9C
:107AE00090E0830F911D982F990F990F980F290FF0
:107AF00080E0821751F0F5E8FA95F1F70000489917
:107B000002C0519817C08F5FF4CF80E0AFDE8111C3
:107B100011C0C8E08D2F8170A9DED69581110AC0F1
:107B2000C150C1F781E0A2DE811104C081E09EDE78
:107B3000882349F080912401882319F08150809393
:107B40002401C1E01AC010922501F8945198809147
:107B5000C10088608093C1008091C00080648093E0
:107B6000C0005A9A8091C10080628093C1007894CD
:107B700089E694E0EAD001C0C0E08C2FDF91CF917C
:107B80000895292F26279295907F482F4295407F70
:107B900022952F7030E0F901EF5EFE4F82958F70D5
:107BA000982B80819827F901EF5FFE4F808148274D
:107BB000292F22959295907F542F5295507F2627FA
:107BC0002F7030E0F901EF5EFE4F842F82958F70A9
:107BD000892B9081892790E0982F8827F901EF5F02
:107BE000FE4F20815227850F911D0895CF93FC01F0
:107BF000CB01CFB7F89474836383458311821082DD
:107C0000128224E1429FA001112460E070E0D2D0F2
:107C1000CFBFCF910895FC018281882311F0858127
:107C200008952FB7F89480819181891B6581A4D034
:107C30002FBF892F0895EF92FF920F931F93CF9339
:107C4000DF93EC018A8181112CC0453108F044E1B9
:107C500088810B811C8194E1899F000D111D1124E5
:107C6000E42EF12CA701C8019CD044E150E04E194C
:107C70005F0960E070E0C8018E0D9F1D9BD0888178
:107C80008F5F88839D81891708F018828FB7F894D9
:107C900028819981291302C091E09A838FBF81E0E6
:107CA00001C080E0DF91CF911F910F91FF90EF9085
:107CB0000895EF92FF920F931F93CF93DF93EC0100
:107CC0008B01F42EE22E50E060E070E0C80172D02B
:107CD000CE01A1DF882379F1EB81FC818981DF016D
:107CE00094E1899FA00DB11D112412968C91F81674
:107CF00048F08981DF0194E1899FA00DB11D112415
:107D00001296FC9089814F2D50E0BF0194E1899F2C
:107D1000600D711D1124C80144D0E1100EC09FB741
:107D2000F89489818F5F89832D81821708F01982E9
:107D30001A829FBF02C080E001C081E0DF91CF9135
:107D40001F910F91FF90EF900895CF93DF93EC0177
:107D500062DF882369F09FB7F89489818F5F8983F8
:107D60002D81821708F019821A829FBF81E001C01D
:107D700080E0DF91CF910895991B79E004C0991FAD
:107D8000961708F0961B881F7A95C9F78095089575
:107D9000FB01DC0102C005900D9241505040D8F724
:107DA0000895FB01DC0102C001900D92415050404A
:107DB000D8F70895DC0101C06D9341505040E0F7C1
:107DC0000895F999FECF92BD81BDF89A992780B5A3
:067DD0000895F894FFCFB6
:107DD6006400010302070604050E0F0D0C09080ACC
:107DE6000B00A0E04060C08020C0602080A0004062
:027DF600E000AB
:107E8000FF920F931F93CF93DF931FB7F894F99945
:107E9000FECFEB0123E0FB0120935700E89507B6E6
:107EA00000FCFDCF20E030E001E0DA01A20FB31FBB
:107EB000FC90F901EC0FFD1F1196AC91B0E0BA2FC8
:107EC000AA27AF0DB11D0D0100935700E8951124AD
:107ED0002E5F3F4F2038310541F725E0FB0120930D
:107EE0005700E89507B600FCFDCF81E1809357006D
:107EF000E8951FBFDF91CF911F910F91FF900895DB
:107F0000637C777BF26B6FC53001672BFED7AB7656
:107F1000CA82C97DFA5947F0ADD4A2AF9CA472C001
:107F2000B7FD9326363FF7CC34A5E5F171D831156E
:107F300004C723C31896059A071280E2EB27B2758F
:107F400009832C1A1B6E5AA0523BD6B329E32F8407
:107F500053D100ED20FCB15B6ACBBE394A4C58CFFF
:107F6000D0EFAAFB434D338545F9027F503C9FA8D3
:107F700051A3408F929D38F5BCB6DA2110FFF3D2A1
:107F8000CD0C13EC5F974417C4A77E3D645D197355
:107F900060814FDC222A908846EEB814DE5E0BDB4F
:107FA000E0323A0A4906245CC2D3AC629195E47986
:107FB000E7C8376D8DD54EA96C56F4EA657AAE08E0
:107FC000BA78252E1CA6B4C6E8DD741F4BBD8B8A7B
:107FD000703EB5664803F60E613557B986C11D9EE1
:107FE000E1F8981169D98E949B1E87E9CE5528DF58
:107FF0008CA1890DBFE6426841992D0FB054BB1684
:040000030000700089
:00000001FF
